:020000040800F2
:1000000008080020CD0100088D040008F90300084D
:1000100089040008D9020008071000080000000049
:100020000000000000000000000000003906000889
:10003000DD02000800000000210500084D0700084F
:10004000E7010008E7010008E7010008E7010008F0
:10005000E7010008E7010008E7010008E7010008E0
:10006000E7010008E7010008E7010008E7010008D0
:10007000E7010008E7010008E7010008E7010008C0
:10008000E7010008E7010008E7010008E7010008B0
:10009000E7010008E7010008E7010008E7010008A0
:1000A000E7010008E7010008E7010008E701000890
:1000B000B1070008DD070008E7010008E7010008B4
:1000C000E7010008E7010008E7010008E701000870
:1000D000E70100083508000819090008E7010008D1
:1000E000E7010008E7010008E7010008E701000850
:1000F000E7010008E7010008E7010008E701000840
:10010000E7010008E7010008E7010008E70100082F
:10011000E7010008E7010008E7010008E70100081F
:10012000E7010008E7010008E7010008E70100080F
:1001300000F002F800F03AF80AA090E8000C8244BF
:100140008344AAF10107DA4501D100F02FF8AFF29C
:10015000090EBAE80F0013F0010F18BFFB1A43F0A5
:100160000103184780120000A0120000103A24BFBB
:1001700078C878C1FAD8520724BF30C830C144BF0C
:1001800004680C607047000000230024002500264E
:10019000103A28BF78C1FBD8520728BF30C148BFEA
:1001A0000B6070471FB51FBD10B510BD00F065F89E
:1001B0001146FFF7F7FF00F0E7FF00F083F803B404
:1001C000FFF7F2FF03BC00F095FF000009488047ED
:1001D00009480047FEE7FEE7FEE7FEE7FEE7FEE729
:1001E000FEE7FEE7FEE7FEE704480549054A064B41
:1001F0007047000051070008310100080802002084
:10020000080800200804002008040020704710B5EA
:10021000203AC0F00B80B1E81850203AA0E81850FE
:10022000B1E81850A0E81850BFF4F5AF5FEA027CBF
:1002300024BFB1E81850A0E8185044BF18C918C02E
:10024000BDE810405FEA827C24BF51F8043B40F8CF
:10025000043B08BF7047D20728BF31F8023B48BFB4
:1002600011F8012B28BF20F8023B48BF00F8012BF2
:1002700070477047704770477047754600F028F820
:10028000AE4605006946534620F00700854618B083
:1002900020B5FFF7A9FFBDE820404FF000064FF062
:1002A00000074FF000084FF0000B21F00701AC46AB
:1002B000ACE8C009ACE8C009ACE8C009ACE8C009CA
:1002C0008D4670470446AFF300802046FFF777FF66
:1002D00000487047A401002000BFFEE770472DE9E9
:1002E000F0410246002500260020002300240027BC
:1002F00091F803C00CF00F0591F803C00CF0100C3E
:10030000BCF1000F03D091F802C04CEA050591F84A
:1003100000C0BCF1000F31D0146800202BE04FF07A
:10032000010C0CFA00F3B1F800C00CEA03069E427F
:1003300020D183004FF00F0C0CFA03F7BC4305FAF1
:1003400003FC4CEA040491F803C0BCF1280F06D169
:100350004FF0010C0CFA00FCC2F814C00AE091F84E
:1003600003C0BCF1480F05D14FF0010C0CFA00FCA2
:10037000C2F810C0401C0828D1D31460B1F800C0E6
:10038000BCF1FF0F34DD546800202EE000F1080CB2
:100390004FF0010808FA0CF3B1F800C00CEA0306AC
:1003A0009E4221D183004FF00F0C0CFA03F7BC439F
:1003B00005FA03FC4CEA040491F803C0BCF1280FD1
:1003C00005D100F1080C08FA0CF8C2F8148091F875
:1003D00003C0BCF1480F07D100F1080C4FF0010831
:1003E00008FA0CF8C2F81080401C0828CED35460DC
:1003F000BDE8F0810161704700BFFEE708B501214B
:10040000042000F09FF80120ADF8000048208DF88E
:10041000030069460148FFF762FF08BD000801407C
:1004200008B50121042000F08DF84FF48070ADF87C
:10043000000010208DF8030003208DF802006946AB
:100440000448FFF74CFF4FF480710248FFF7D2FFDA
:1004500008BD00000008014070B504460D46164670
:1004600004222146064800F0D0FD324629460448C1
:1004700000F0CBFD02220349014800F0C6FD70BD2B
:10048000004400403000002000BFFEE7704710B578
:100490004FF4A06000F03AF810BD000070B50021E4
:1004A00000230F22C47804B3154C246804F4E064DC
:1004B000C4F5E064210AC1F10403CA40447804FA97
:1004C00003F184781440214309010E4C0678A155AC
:1004D000047804F01F050124AC4005786D11AD00CF
:1004E00005F1E025C5F8004109E0047804F01F0596
:1004F0000124AC40044D0678761145F8264070BDC5
:100500000CED00E000E400E080E100E0024901437E
:10051000024A1160704700000000FA050CED00E08F
:100520007047000029B1064AD2690243044BDA61E0
:1005300004E0034AD2698243014BDA61704700004C
:100540000010024029B1064A92690243044B9A61A5
:1005500004E0034A92698243014B9A6170470000AC
:100560000010024030B500210022002400232D4D50
:100570006D6805F00C0121B1042905D0082923D1AB
:1005800005E0294D056022E0274D05601FE0254D5F
:100590006D6805F47012234D6D6805F480340225F2
:1005A00005EB92421CB9214D554305600BE01D4DF2
:1005B0006D6805F400351DB11C4D5543056002E022
:1005C000194D5543056002E0174D056000BF00BF9F
:1005D000144D6D6805F0F0010909154D6B5C056857
:1005E000DD4045600F4D6D6805F4E061090A104D6E
:1005F0006B5C4568DD4085600A4D6D6805F46051AF
:10060000C90A0B4D6B5C4568DD40C560054D6D68E2
:1006100005F44041890B074D6B5CC568B5FBF3F5EC
:10062000056130BD0010024000127A0000093D0053
:100630009A000020AA000020704710B500F002F8D0
:1006400010BD00000CB500200190009033480068F8
:1006500040F480303149086000BF3048006800F441
:10066000003000900198401C0190009818B9019842
:10067000B0F5A06FF1D12948006800F4003010B146
:100680000120009001E0002000900098012843D153
:100690002348006840F010002149086008460068BF
:1006A00020F0030008600846006840F0020008607F
:1006B0001A4840681949486008464068486008463A
:1006C000406840F4806048600846406820F47C1030
:1006D00048600846406840F4E810486008460068F2
:1006E00040F08070086000BF0C48006800F00070A7
:1006F0000028F9D00948406820F003000749486005
:100700000846406840F00200486000BF0348406867
:1007100000F00C000828F9D10CBD000000100240C8
:1007200000200240042808D14FF0E021096941F07F
:1007300004014FF0E022116107E04FF0E021096968
:1007400021F004014FF0E022116170477047000072
:1007500010B51348006840F00100114908600846D0
:100760004068104908400E494860084600680E4934
:1007700008400B4908600846006820F480200860A3
:100780000846406820F4FE0048604FF41F0088606F
:10079000FFF753FF4FF000600449086010BD0000F0
:1007A000001002400000FFF8FFFFF6FE08ED00E039
:1007B00010B50121880700F02CF858B101218807F5
:1007C00000F024F80448006808B9012000E0002087
:1007D0000149086010BD0000A001214210B50121AF
:1007E000084800F016F858B10121064800F00EF84C
:1007F0000548006808B9012000E0002002490860AF
:1008000010BD000000040040A0012142CA43028242
:10081000704730B50246002000230024158A05EAFF
:100820000103958905EA010413B10CB1012000E030
:10083000002030BD10B540F22551304800F01EFBBD
:10084000002859D040F225512C4800F0EFFA2C48EE
:10085000007801281CD1294800F0CCFBC1B22948FE
:1008600002780078401C274B187027488154007884
:10087000AA280DD12448807A0A2809D12248C078B4
:1008800022490870204800794870012020490870EA
:100890001D480078AA2817D01B48807A0A2813D050
:1008A0000020184908701B49087009E0002016490B
:1008B000184A1278885417480078401C1549087067
:1008C000144800780B28F1DB0E4800780A2813DD65
:1008D00000200C4908700F49087009E000200A49FF
:1008E0000C4A127888540B480078401C094908705B
:1008F000084800780B28F1DB10BD000000380140EB
:100900006E00002050000020B00000207900002080
:100910006D0000205300002070B540F22551FC48C6
:1009200000F0ACFA002877D040F22551F84800F0EA
:100930007DFAF74800F05EFBC1B2F6480278007815
:10094000401CF44B1870F44881540078AA2870D1E8
:10095000F148807A0A28FAD1EF48007901284AD173
:10096000ED480079ED4908600D462D68EC4E36687B
:10097000AC1B002C01DB254600E06542022D35DD75
:10098000E64D2D68E64E3668AB1B002B01DB1D469D
:1009900000E05D42022D29DDE04D2D68E04E366815
:1009A000AA1B002A01DB154600E05542022D1DDD81
:1009B000DA4D2D68DA4E3668A91B002901DB0D4699
:1009C00000E04D42022D11DDD44D2D68D44E366825
:1009D000A81B002801DB054600E04542022D05DD8D
:1009E0000222D049D048FFF737FD04E00222CD496A
:1009F000CD48FFF731FDC848007902284CD1C648E0
:100A00000079C7490860C54D2D680E463668AC1B95
:100A1000002C02DB254601E0F8E16542022D36DDBF
:100A2000BE4D2D68BE4E3668AB1B002B02DB1D464B
:100A300001E0B7E15D42022D29DDB84D2D68B84EC9
:100A40003668AA1B002A01DB154600E05542022D3C
:100A50001DDDB24D2D68B24E3668A91B002901DBA1
:100A60000D4600E04D42022D11DDAC4D2D68AC4E1F
:100A70003668A81B002801DB054600E04542022D30
:100A800005DD0222A949AA48FFF7E6FC04E002229C
:100A9000A649A748FFF7E0FC9F48007903284AD100
:100AA0009D480079A34908609C4D2D689C4E36688E
:100AB000AC1B002C01DB254600E06542022D35DD34
:100AC000964D2D68964E3668AB1B002B01DB1D46FC
:100AD00000E05D42022D29DD904D2D68904E366874
:100AE000AA1B002A01DB154600E05542022D1DDD40
:100AF0008A4D2D688A4E3668A91B002901DB0D46F8
:100B000000E04D42022D11DD844D2D68844E366883
:100B1000A81B002801DB054600E04542022D05DD4B
:100B2000022285498548FFF797FC04E002228249AA
:100B30008248FFF791FC7848007904284AD176482A
:100B400000797F490860754D2D68754E3668AC1B7D
:100B5000002C01DB254600E06542022D35DD6F4D9E
:100B60002D686F4E3668AB1B002B01DB1D4600E085
:100B70005D42022D29DD694D2D68694E3668AA1B3C
:100B8000002A01DB154600E05542022D1DDD634DB4
:100B90002D68634E3668A91B002901DB0D4600E075
:100BA0004D42022D11DD5D4D2D685D4E3668A81B4E
:100BB000002801DB054600E04542022D05DD02224A
:100BC00060496148FFF748FC04E002225D495E4845
:100BD000FFF742FC5048007905284AD14E48007979
:100BE0005A4908604D4D2D684D4E3668AC1B002C9F
:100BF00001DB254600E06542022D35DD474D2D68BD
:100C0000474E3668AB1B002B01DB1D4600E05D4202
:100C1000022D29DD414D2D68414E3668AA1B002A60
:100C200001DB154600E05542022D1DDD3B4D2D68D0
:100C30003B4E3668A91B002901DB0D4600E04D4202
:100C4000022D11DD354D2D68354E3668A81B002864
:100C500001DB054600E04542022D05DD02223C494C
:100C60003C48FFF7F9FB04E0022239493948FFF715
:100C7000F3FB29480079062849D1274840793649AD
:100C80000860264D2D68264E3668AC1B002C01DB13
:100C9000254600E06542022D64DD204D2D68204E82
:100CA0003668AB1B002B01DB1D4600E05D42022DC8
:100CB00058DD1A4D2D681A4E3668AA1B002A01DB32
:100CC000154600E05542022D4CDD144D2D68144EA2
:100CD0003668A91B002901DB0D4600E04D42022DBC
:100CE00040DD0E4D2D680E4E3668A81B002801DB36
:100CF000054600E04542022D34DD174D2D68DD2DFF
:100D000030D0022215491648FFF7A6FB2FE035E048
:100D10000044004051000020BB000020540000208F
:100D2000580000207C000020180000207E000020D9
:100D30001C0000205C00002080000020200000201B
:100D400060000020820000202400002064000020B9
:100D50008400002028000020680000208600002079
:100D60002C00002002222A492A48FFF775FB2A4856
:100D70000068DD2802D10120284908700020284998
:100D800008702849087009E000202749254A127890
:100D9000885424480078401C224908702148007873
:100DA0000B28F1DB20480078AA2817D01E48807A4B
:100DB0000A2813D000201A4908701A49087009E05F
:100DC00000211948174A1278815416480078401CAF
:100DD00014490870134800780B28F1DB104800789C
:100DE0000A2813DD00200E4908700E49087009E03A
:100DF00000200D490B4A127888540A480078401C9C
:100E000008490870074800780B28F1DB70BD000026
:100E1000920000202C000020680000206E000020BE
:100E20005100002053000020BB00002010B500221C
:100E3000002340F66A14A14200D100BF0A12012427
:100E40009440A3B2DC43048010BD21B1828942F4F6
:100E50000052828104E082894DF6FF731A4082813C
:100E6000704702460020B1F5007F00D100BF138813
:100E70000B400BB1012000E00020704770B5024626
:100E8000002400230025002040F66A16B14200D15C
:100E900000BFC1F3421501F01F03012606FA03F358
:100EA000012D02D19689334006E0022D02D1168A27
:100EB000334001E0968A33400C12012606FA04F40E
:100EC0001688344013B10CB1012000E0002070BD41
:100ED000F0B50346002400260025002040F66A17DE
:100EE000B94200D100BF1846C1F3421401F01F06F9
:100EF000012707FA06F5012C01D10C3004E0022C81
:100F000001D1103000E014301AB107682F43076098
:100F100002E00768AF430760F0BD00002DE9F0472D
:100F200086B005460E460024A24600BFA146002713
:100F3000B08900B100BF2F462C8A4CF6FF700440E8
:100F4000F08804432C82AC894EF6F3100440B0883C
:100F500031890843718908430443AC81AC8A4FF658
:100F6000FF400440B0890443AC8201A8FFF7FAFABD
:100F70001F48874202D1DDF810A001E0DDF80CA087
:100F8000A88900F4004040B10AEBCA0000EB0A1047
:100F900031684900B0FBF1F807E00AEBCA0000EB4A
:100FA0000A1031688900B0FBF1F86420B8FBF0F05A
:100FB00004012009642101FB1089A88900F4004084
:100FC00040B1322000EBC900B0FBF1F000F00700A7
:100FD000044308E0322000EB09106421B0FBF1F07B
:100FE00000F00F0004432C8106B0BDE8F08700003C
:100FF0000038014001468888C0F308007047C1F3FB
:1010000008028280704700BFFEE72DE9F0410746E5
:101010000C46154600260DE014F8011B3846FFF774
:10102000EEFF00BF40213846FFF71BFF0028F9D034
:10103000701C86B2AE42EFDBBDE8F08100B58BB02C
:101040001EA207CA08AB07C318221FA102A8FFF7F8
:10105000DEF823A103C9CDE900010A222249234871
:10106000FFF7D3FFC82000F069F80C2208A91F4839
:10107000FFF7CBFF642000F061F8162202A91B489D
:10108000FFF7C3FF642000F059F8082269461748AB
:10109000FFF7BBFF042216491448FFF7B6FF642090
:1010A00000F04CF80A2210491048FFF7AEFF4FF449
:1010B000967000F043F80BB000BD000041542B4E79
:1010C000414D453132330D0A41542B4E455449446C
:1010D0003636353534343333323231310D0A00008F
:1010E00041542B4D41444452040000200044004030
:1010F0000000002000BF704710B56FF00400FFF73C
:1011000011FB0A4800680A49B0FBF1F00949087070
:101110000846007800EB4001C1EBC0104FF6FF71AC
:1011200001EAC0000449088010BD0000380000201A
:1011300000127A004C0000204E0000200146114AA7
:1011400012884A434FF0E0235A6100229A611A46FE
:10115000126942F001021A6100BF4FF0E0221069EB
:1011600000F001021AB100F48032002AF5D04FF0ED
:10117000E022126922F001024FF0E0231A610022FE
:101180009A6170474E000020FFF7B6FFFFF77FF926
:101190004FF4E13000F084F84FF4E13000F0D0F883
:1011A000FFF73EF9FFF72AF9FFF748FF57E02C4811
:1011B000007801283BD12B480068AB2804D10322DA
:1011C00029492A48FFF748F929480068AB2804D183
:1011D000032225492748FFF73FF927480068AB2835
:1011E00004D1032220492548FFF736F92448006836
:1011F000AB2804D103221C492248FFF72DF92248CD
:101200000068AB2804D1032217492048FFF724F9CE
:101210001F480068AB2804D1032213491D48FFF77B
:101220001BF9C820FFF78AFF00201B4908701B48E4
:101230000078012813D10020184908700849087067
:1012400009490870487007490860094908600A4957
:1012500008600B4908600C4908600D490860A6E762
:101260006D000020540000207900002018000020AC
:10127000580000201C0000205C00002020000020FE
:1012800060000020240000206400002028000020CE
:10129000680000202C0000206E0000206F0000205D
:1012A00010B586B00446012144F20400FFF74AF964
:1012B0004FF40070ADF8140003208DF816001820CC
:1012C0008DF8170005A91C48FFF709F84FF4806056
:1012D000ADF8140004208DF8170005A91648FEF794
:1012E000FEFF25208DF8000003208DF801008DF809
:1012F000020001208DF803006846FFF7CFF8019443
:101300000020ADF80800ADF80A00ADF80C00ADF80B
:1013100010000C20ADF80E0001A90848FFF7FEFDF3
:10132000012240F225510548FFF7D2FD0121034873
:10133000FFF78BFD06B010BD0008014000380140EA
:1013400010B586B0044601210420FFF7FBF8012107
:101350004804FFF7E7F80420ADF8140018208DF8D2
:10136000170003208DF8160005A91C48FEF7B7FFEB
:101370000820ADF8140004208DF8170005A91748BF
:10138000FEF7ADFF26208DF8000003208DF8010048
:101390008DF8020001208DF803006846FFF77EF803
:1013A00001940020ADF80800ADF80A00ADF80C007B
:1013B000ADF810000C20ADF80E0001A90848FFF7A9
:1013C000ADFD012240F225510548FFF781FD0121C5
:1013D0000348FFF73AFD06B010BD000000080140C9
:1013E000004400400414000800000020B000000089
:1013F0006C010008B4140008B00000205807000079
:101400008801000832340D0A41542B52455345548B
:101410000D0AAAFBFFFF112233445566AAFB0021E7
:10142000AAFB0022AAFB0023AAFB0024AAFB00259A
:10143000AAFB00260D0A11223344556600A24A0475
:101440000000000000000000010203040607080974
:10145000000000000000000000000000000000008C
:10146000000000000000000000000000000000007C
:10147000000000000000000000000000000000006C
:101480001313232333334343535363631414242428
:1014900034344444545464640000000000000000EC
:1014A0000000010203040102030406070809020404
:0414B000060800002A
:0400000508000131BD
:00000001FF
