:020000040800F2
:1000000028070020CD0100088D040008F90300082E
:1000100089040008D9020008D30F0008000000007E
:100020000000000000000000000000003906000889
:10003000DD02000800000000210500084D0700084F
:10004000E7010008E7010008E7010008E7010008F0
:10005000E7010008E7010008E7010008E7010008E0
:10006000E7010008E7010008E7010008E7010008D0
:10007000E7010008E7010008E7010008E7010008C0
:10008000E7010008E7010008E7010008E7010008B0
:10009000E7010008E7010008E7010008E7010008A0
:1000A000E7010008E7010008E7010008E701000890
:1000B000B1070008DD0700082D090008E701000866
:1000C000E7010008E7010008E7010008E701000870
:1000D000E7010008990A0008F10B0008350D000837
:1000E000E7010008E7010008E7010008E701000850
:1000F000E7010008E7010008E7010008E701000840
:10010000E7010008E7010008E7010008E70100082F
:10011000E7010008E7010008E7010008E70100081F
:10012000E7010008E7010008E7010008E70100080F
:1001300000F002F800F03AF80AA090E8000C8244BF
:100140008344AAF10107DA4501D100F02FF8AFF29C
:10015000090EBAE80F0013F0010F18BFFB1A43F0A5
:1001600001031847FC1100001C120000103A24BFC4
:1001700078C878C1FAD8520724BF30C830C144BF0C
:1001800004680C607047000000230024002500264E
:10019000103A28BF78C1FBD8520728BF30C148BFEA
:1001A0000B6070471FB51FBD10B510BD00F065F89E
:1001B0001146FFF7F7FF00F0F3FF00F083F803B4F8
:1001C000FFF7F2FF03BC00F07BFF00000948804707
:1001D00009480047FEE7FEE7FEE7FEE7FEE7FEE729
:1001E000FEE7FEE7FEE7FEE704480549054A064B41
:1001F0007047000051070008310100082801002065
:10020000280700202803002028030020704710B58D
:10021000203AC0F00B80B1E81850203AA0E81850FE
:10022000B1E81850A0E81850BFF4F5AF5FEA027CBF
:1002300024BFB1E81850A0E8185044BF18C918C02E
:10024000BDE810405FEA827C24BF51F8043B40F8CF
:10025000043B08BF7047D20728BF31F8023B48BFB4
:1002600011F8012B28BF20F8023B48BF00F8012BF2
:1002700070477047704770477047754600F028F820
:10028000AE4605006946534620F00700854618B083
:1002900020B5FFF7A9FFBDE820404FF000064FF062
:1002A00000074FF000084FF0000B21F00701AC46AB
:1002B000ACE8C009ACE8C009ACE8C009ACE8C009CA
:1002C0008D4670470446AFF300802046FFF777FF66
:1002D00000487047C400002000BFFEE770472DE9CA
:1002E000F0410246002500260020002300240027BC
:1002F00091F803C00CF00F0591F803C00CF0100C3E
:10030000BCF1000F03D091F802C04CEA050591F84A
:1003100000C0BCF1000F31D0146800202BE04FF07A
:10032000010C0CFA00F3B1F800C00CEA03069E427F
:1003300020D183004FF00F0C0CFA03F7BC4305FAF1
:1003400003FC4CEA040491F803C0BCF1280F06D169
:100350004FF0010C0CFA00FCC2F814C00AE091F84E
:1003600003C0BCF1480F05D14FF0010C0CFA00FCA2
:10037000C2F810C0401C0828D1D31460B1F800C0E6
:10038000BCF1FF0F34DD546800202EE000F1080CB2
:100390004FF0010808FA0CF3B1F800C00CEA0306AC
:1003A0009E4221D183004FF00F0C0CFA03F7BC439F
:1003B00005FA03FC4CEA040491F803C0BCF1280FD1
:1003C00005D100F1080C08FA0CF8C2F8148091F875
:1003D00003C0BCF1480F07D100F1080C4FF0010831
:1003E00008FA0CF8C2F81080401C0828CED35460DC
:1003F000BDE8F0810161704700BFFEE708B501214B
:10040000042000F09FF80120ADF8000048208DF88E
:10041000030069460148FFF762FF08BD000801407C
:1004200008B50121042000F08DF84FF48070ADF87C
:10043000000010208DF8030003208DF802006946AB
:100440000448FFF74CFF4FF480710248FFF7D2FFDA
:1004500008BD00000008014070B504460D46164670
:1004600004222146064800F0B6FD324629460448DB
:1004700000F0B1FD02220349014800F0ACFD70BD5F
:10048000004400403200002000BFFEE7704710B576
:100490004FF4A06000F03AF810BD000070B50021E4
:1004A00000230F22C47804B3154C246804F4E064DC
:1004B000C4F5E064210AC1F10403CA40447804FA97
:1004C00003F184781440214309010E4C0678A155AC
:1004D000047804F01F050124AC4005786D11AD00CF
:1004E00005F1E025C5F8004109E0047804F01F0596
:1004F0000124AC40044D0678761145F8264070BDC5
:100500000CED00E000E400E080E100E0024901437E
:10051000024A1160704700000000FA050CED00E08F
:100520007047000029B1064AD2690243044BDA61E0
:1005300004E0034AD2698243014BDA61704700004C
:100540000010024029B1064A92690243044B9A61A5
:1005500004E0034A92698243014B9A6170470000AC
:100560000010024030B500210022002400232D4D50
:100570006D6805F00C0121B1042905D0082923D1AB
:1005800005E0294D056022E0274D05601FE0254D5F
:100590006D6805F47012234D6D6805F480340225F2
:1005A00005EB92421CB9214D554305600BE01D4DF2
:1005B0006D6805F400351DB11C4D5543056002E022
:1005C000194D5543056002E0174D056000BF00BF9F
:1005D000144D6D6805F0F0010909154D6B5C056857
:1005E000DD4045600F4D6D6805F4E061090A104D6E
:1005F0006B5C4568DD4085600A4D6D6805F46051AF
:10060000C90A0B4D6B5C4568DD40C560054D6D68E2
:1006100005F44041890B074D6B5CC568B5FBF3F5EC
:10062000056130BD0010024000127A0000093D0053
:100630007C0000208C000020704710B500F002F80C
:1006400010BD00000CB500200190009033480068F8
:1006500040F480303149086000BF3048006800F441
:10066000003000900198401C0190009818B9019842
:10067000B0F5A06FF1D12948006800F4003010B146
:100680000120009001E0002000900098012843D153
:100690002348006840F010002149086008460068BF
:1006A00020F0030008600846006840F0020008607F
:1006B0001A4840681949486008464068486008463A
:1006C000406840F4806048600846406820F47C1030
:1006D00048600846406840F4E810486008460068F2
:1006E00040F08070086000BF0C48006800F00070A7
:1006F0000028F9D00948406820F003000749486005
:100700000846406840F00200486000BF0348406867
:1007100000F00C000828F9D10CBD000000100240C8
:1007200000200240042808D14FF0E021096941F07F
:1007300004014FF0E022116107E04FF0E021096968
:1007400021F004014FF0E022116170477047000072
:1007500010B51348006840F00100114908600846D0
:100760004068104908400E494860084600680E4934
:1007700008400B4908600846006820F480200860A3
:100780000846406820F4FE0048604FF41F0088606F
:10079000FFF753FF4FF000600449086010BD0000F0
:1007A000001002400000FFF8FFFFF6FE08ED00E039
:1007B00010B50121880700F002F958B1012188071E
:1007C00000F0EEF80448006808B9012000E00020BD
:1007D0000149086010BD0000A001214210B50121AF
:1007E0001A4800F0ECF878B30121184800F0D8F866
:1007F0001748006808B9012000E00020144908608B
:1008000014480078022804DA12480078401C114984
:10081000087000201049087012E01048104A127841
:10082000815C104800F0D1FB00BF40210D4800F072
:10083000FEFA0028F9D008480078401C06490870E4
:10084000054800781428E8DB10BD000000040040D3
:10085000A00121425600002054000020A4000020E6
:1008600055000020003801407FB505460C460121A7
:100870000220FFF757FEADF80850ADF80440002005
:10088000ADF80A00ADF8060001A90E4800F0B2F874
:10089000012211460B4800F0A3F81D208DF800003E
:1008A00001208DF8010003208DF8020001208DF851
:1008B00003006846FFF7F2FD0121024800F073F8DB
:1008C0007FBD0000000400407FB505460C460121B5
:1008D0000420FFF727FE681E80B2ADF80800601EF6
:1008E00080B2ADF804000020ADF80A00ADF80600B3
:1008F00001A90D4800F07EF8012211460A4800F0D7
:100900006FF81E208DF8000003208DF801008DF88F
:10091000020001208DF803006846FFF7BFFD0121AA
:10092000014800F040F87FBD0008004010B50121EB
:10093000194800F044F868B30121174800F030F876
:10094000E821164800F041FB00BF1448008800F081
:1009500040000028F9D0282000F0FCFB02210F48BD
:1009600000F033FB00BF0D48008800F04000002875
:10097000F9D0282000F0EEFBB421084800F025FB58
:1009800000BF0648008800F040000028F9D0C820C9
:1009900000F0E0FB10BD00000004004000440040F7
:1009A000CA430282704721B1028842F001020280EC
:1009B00004E002884FF6FE731A400280704730B59B
:1009C0000246002000230024158A05EA01039589C8
:1009D00005EA010413B10CB1012000E0002030BD94
:1009E0001AB183890B43838102E083898B4383811E
:1009F00070470000002202881D4B98420ED01D4B0C
:100A000098420BD0B0F1804F08D01B4B984205D0D4
:100A10001A4B984202D01A4B984204D14FF68F736A
:100A20001A404B881A43174B984207D0164B9842EE
:100A300004D04FF6FF431A40CB881A4302808B88BC
:100A400083850B8803850A4B98420BD0094B98424B
:100A500008D00E4B984205D00D4B984202D00D4B5A
:100A6000984201D10B7A03860123838270470000EC
:100A7000002C014000340140000400400008004008
:100A8000000C0040001000400014004000400140F5
:100A9000004401400048014010B540F225514B4848
:100AA00000F0D2F900287DD040F22551474800F0EF
:100AB000A3F9464800F084FAC1B2454802780078AC
:100AC000401C434B18704348815443480078242805
:100AD00044D14148C07C232840D100203F490870C0
:100AE0000CE03D483D490978415C3A483B4A127860
:100AF00081543A480078401C3849087037480078DB
:100B00001428EEDB3348C078DD2813D13148007952
:100B1000DD280FD100218007FFF745FF0021304875
:100B200000F079F9DD202F494870887003222E48A3
:100B3000FFF792FC0020264908702C49087009E054
:100B400000202549294A1278885428480078401CFA
:100B500026490870254800781428F1DB1E480078E3
:100B6000242817D01C48C07C232813D00020184903
:100B700008701E49087009E0002017491B4A1278C6
:100B800088541A480078401C1849087017480078A3
:100B90001428F1DB0E480078132815DD00200C49DD
:100BA000087000E010E01149087009E000210A48CF
:100BB0000E4A127881540D480078401C0B49087089
:100BC0000A4800781428F1DB10BD0000003801400D
:100BD0005E000020A4000020900000205D000020A6
:100BE0000048004061000020160000205F00002047
:100BF00010B540F22551474800F026F9002878D07A
:100C000040F22551434800F0F7F8424800F0D8F987
:100C1000C1B2414802780078401C3F4B18703F48F1
:100C200081540078AA283ED13C48807A0A283AD1DB
:100C30003A48C078112802D1002039490870374855
:100C4000C078122802D101203549087000203549AA
:100C5000087035484078DD2811D133488078DD2888
:100C60000DD12E480079DD2809D12C4800792F4973
:100C700008802A4840794880284880798880002068
:100C8000254908702A49087009E000202349284AAC
:100C90001278885426480078401C2549087024485A
:100CA00000780B28F1DB1D480078AA2817D01B48D4
:100CB000807A0A2813D00020174908701C49087050
:100CC00009E0002015491A4A12788854184800781B
:100CD000401C17490870164800780B28F1DB0E48B5
:100CE00000780A2814DD00200B49087010490870AC
:100CF0000AE00DE0002009490D4A127888540C489A
:100D00000078401C0A490870094800780B28F1DB7C
:100D100010BD0000004400406A000020B800002020
:100D20006C000020560000206100002064000020BC
:100D30006B00002010B540F22551274800F084F8E0
:100D4000002847D040F22551234800F055F82348A9
:100D500000F036F9C1B2224802780078401C204BDE
:100D600018702048815418460078012832DD1D484B
:100D70004178007801EB00201B4908800846008874
:100D800064280BDD1948007801280FD1002017498D
:100D9000087001218807FFF706FE07E000214FF0E9
:100DA0008040FFF700FE01201049087000200C4928
:100DB00008700F49087009E000200E490C4A1278AB
:100DC00088540B480078401C09490870084800788E
:100DD0000228F1DB10BD0000004400400048004044
:100DE0006E0000206F0000207200002074000020C0
:100DF00071000020B800002010B50022002340F64A
:100E00006A14A14200D100BF0A1201249440A3B287
:100E1000DC43048010BD21B1828942F400528281FA
:100E200004E082894DF6FF731A40828170470246C2
:100E30000020B1F5007F00D100BF13880B400BB13B
:100E4000012000E00020704770B502460024002316
:100E50000025002040F66A16B14200D100BFC1F360
:100E6000421501F01F03012606FA03F3012D02D1FA
:100E70009689334006E0022D02D1168A334001E004
:100E8000968A33400C12012606FA04F41688344080
:100E900013B10CB1012000E0002070BDF0B5034695
:100EA000002400260025002040F66A17B94200D130
:100EB00000BF1846C1F3421401F01F06012707FACC
:100EC00006F5012C01D10C3004E0022C01D11030C8
:100ED00000E014301AB107682F43076002E007688A
:100EE000AF430760F0BD00002DE9F04786B005462E
:100EF0000E460024A24600BFA1460027B08900B1DB
:100F000000BF2F462C8A4CF6FF700440F088044343
:100F10002C82AC894EF6F3100440B0883189084326
:100F2000718908430443AC81AC8A4FF6FF4004400A
:100F3000B0890443AC8201A8FFF714FB1F48874225
:100F400002D1DDF810A001E0DDF80CA0A88900F4C2
:100F5000004040B10AEBCA0000EB0A1031684900BA
:100F6000B0FBF1F807E00AEBCA0000EB0A103168A9
:100F70008900B0FBF1F86420B8FBF0F0040120090F
:100F8000642101FB1089A88900F4004040B132209F
:100F900000EBC900B0FBF1F000F00700044308E0EB
:100FA000322000EB09106421B0FBF1F000F00F00DB
:100FB00004432C8106B0BDE8F087000000380140F2
:100FC00001468888C0F308007047C1F30802828098
:100FD000704700BFFEE72DE9F04107460C46154675
:100FE00000260DE014F8011B3846FFF7EEFF00BFA6
:100FF00040213846FFF71BFF0028F9D0701C86B24D
:10100000AE42EFDBBDE8F08100B58BB01EA207CA8F
:1010100008AB07C318221FA102A8FFF7F8F823A105
:1010200003C9CDE900010A2222492348FFF7D3FF73
:10103000C82000F069F80C2208A91F48FFF7CBFF71
:10104000642000F061F8162202A91B48FFF7C3FFD5
:10105000642000F059F8082269461748FFF7BBFFE3
:10106000042216491448FFF7B6FF642000F04CF83C
:101070000A2210491048FFF7AEFF4FF4967000F0B7
:1010800043F80BB000BD000041542B4E414D45319B
:1010900032330D0A41542B4E4554494436363535CA
:1010A00034343333323231310D0A000041542B4D88
:1010B0004144445208000020004400400400002045
:1010C00000BF704710B56FF00400FFF72BFB0A4814
:1010D00000680A49B0FBF1F0094908700846007839
:1010E00000EB4001C1EBC0104FF6FF7101EAC000F8
:1010F0000449088010BD00004000002000127A0062
:10110000580000205A0000200146114A12884A4324
:101110004FF0E0235A6100229A611A46126942F0A8
:1011200001021A6100BF4FF0E022106900F00102D5
:101130001AB100F48032002AF5D04FF0E022126993
:1011400022F001024FF0E0231A6100229A617047F9
:101150005A0000200146114A12784A434FF0E0231A
:101160005A6100229A611A46126942F001021A611C
:1011700000BF4FF0E022106900F001021AB100F444
:101180008032002AF5D04FF0E022126922F00102ED
:101190004FF0E0231A6100229A6170475800002046
:1011A000FFF790FFFFF773F94FF4165000F036F891
:1011B0004FF4E13000F082F841F61F4141F28730F0
:1011C000FFF752FB41F61F4140F2E730FFF77CFB8F
:1011D000FFF726F9FFF712F9FFF716FF14E00B48A7
:1011E0000088DD280FD101218007FFF7DCFB0121FA
:1011F0000748FFF710FE0020044908800322054934
:101200000548FFF729F900BFE9E700006400002066
:10121000004800403A0000201600002010B586B0BB
:101220000446012144F20400FFF78CF94FF40070EA
:10123000ADF8140003208DF8160018208DF8170063
:1012400005A91C48FFF74BF84FF48060ADF8140077
:1012500004208DF8170005A91648FFF740F825204F
:101260008DF8000003208DF801008DF802000120A8
:101270008DF803006846FFF711F901940020ADF8DE
:101280000800ADF80A00ADF80C00ADF810000C2015
:10129000ADF80E0001A90848FFF726FE012240F232
:1012A00025510548FFF7FAFD01210348FFF7B3FD7B
:1012B00006B010BD000801400038014010B586B0EE
:1012C000044601210420FFF73DF901214804FFF7FE
:1012D00029F90420ADF8140018208DF81700032018
:1012E0008DF8160005A91C48FEF7F9FF0820ADF897
:1012F000140004208DF8170005A91748FEF7EFFF2A
:1013000026208DF8000003208DF801008DF80200E2
:1013100001208DF803006846FFF7C0F80194002013
:10132000ADF80800ADF80A00ADF80C00ADF81000FB
:101330000C20ADF80E0001A90848FFF7D5FD0122E9
:1013400040F225510548FFF7A9FD01210348FFF7A9
:1013500062FD06B010BD00000008014000440040DE
:101360008013000800000020900000006C010008BD
:101370001014000890000020980600008801000862
:101380000700000032360D0A41542B524553455494
:101390000D0AAAFBFFFFAAFB0020AAFB0021AAFB63
:1013A0000022AAFB0023AAFB0024AAFB0025AAFB1B
:1013B00000260D0A1122334455660000000000008B
:1013C00000A24A0400000000000000000102030423
:1013D00006070809000000000000000000000000EF
:1013E00000210000000000000000000000000000DC
:1013F00000000000000000000000000000000000ED
:101400000102030401020304060708090204060896
:0400000508000131BD
:00000001FF
